:020000040800F2
:100000003807002091010008D31A0008EB170008F8
:10001000D11A000865050008D11F00080000000083
:10002000000000000000000000000000C51B0008E8
:100030006705000800000000D51A0008991C000898
:10004000AB010008AB010008AB010008AB010008E0
:10005000AB010008AB010008AB010008AB010008D0
:10006000AB010008AB010008AB010008AB010008C0
:10007000AB010008AB010008AB010008AB010008B0
:10008000AB010008AB010008AB010008AB010008A0
:10009000AB010008AB010008AB010008AB01000890
:1000A000AB010008AB010008AB010008AB01000880
:1000B000AB010008AB01000800000000AB01000824
:1000C000AB0100080000000000000000AB010008C8
:1000D00000000000AB010008AB01000800000000B8
:1000E000AB010008AB010008AB01000800F002F80A
:1000F00000F03FF80AA090E8000C82448344AAF183
:100100000107DA4501D100F034F8AFF2090EBAE880
:100110000F0013F0010F18BFFB1A43F0010318473B
:100120001427000034270000103A24BF78C878C193
:10013000FAD8520724BF30C830C144BF04680C60ED
:10014000704700000023002400250026103A28BF35
:1001500078C1FBD8520728BF30C148BF0B60704739
:10016000642900F07D80002070471FB51FBD10B5C9
:1001700010BD00F052F91146FFF7F7FF01F0EAFF5A
:1001800000F070F903B4FFF7F2FF03BC00F078F958
:100190000948804709480047FEE7FEE7FEE7FEE71B
:1001A000FEE7FEE7FEE7FEE7FEE7FEE70448054957
:1001B000054A064B70470000111D0008ED000008BD
:1001C00038010020380700203803002038030020C1
:1001D0000FB41CB5074B06AA7B44694600900598EE
:1001E00000F003F90020694600F012F91CBC5DF82C
:1001F00014FB0000350200002DE9F0410E460446D4
:10020000002020622046E168884730B3252805D0C9
:10021000D4E901219047206A401CF2E7E1682046BA
:1002200000278847050018D0A5F14100192802D8F9
:1002300020354FF400673246294620462760FFF7F5
:100240008FFF40B1012804D0F61D26F007060836BE
:10025000D8E7361DD6E72846DAE7206ABDE8F08100
:100260002DE9F0410646002410687529314616A58F
:1002700010D0AFF30080002802DA404213A507E057
:1002800031688A0701D512A502E0490704D511A5F6
:10029000012401E0AFF3008000210A2206F12407C7
:1002A00009E0B0FBF2FCB0FBF2F302FB1C003030C3
:1002B00078541846491C0028F3D123462A46304674
:1002C000BDE8F04100F032B8000000002D00000051
:1002D0002B000000200000004FF0000200B5134684
:1002E00094469646203922BFA0E80C50A0E80C5056
:1002F000B1F12001BFF4F7AF090728BFA0E80C5007
:1003000048BF0CC05DF804EB890028BF40F8042BFF
:1003100008BF704748BF20F8022B11F0804F18BF6C
:1003200000F8012B70477047704770472DE9F04780
:100330000D4699469246044600F124080168880655
:1003400004D5E06921F01001216000E00120A842FD
:1003500001DD471B00E00027A1697A1902EB0900C3
:10036000081AA0612078C00602D42046AFF30080AE
:10037000002608E0D4E901211AF806009047206A17
:10038000401C761C20624E45F4DB2078C0060AD55E
:100390002046AFF3008006E0D4E9012130209047E9
:1003A000206A401C2062381EA7F10107F4DC07E038
:1003B000D4E9012118F805009047206A401C20620A
:1003C000281EA5F10105F3DC2046AFF3008020785C
:1003D000000602D50220BDE8F0870120FBE70000FF
:1003E00001694A1C02610878704700B58FB0CDE9F9
:1003F00001310021059105497944CDE903101146E9
:100400006846FFF7F9FE0FB000BD0000E5FFFFFFF3
:100410000A6802F8010B0A607047754600F02CF874
:10042000AE4605006946534620F00700854618B0E1
:1004300020B5FFF7BBFEBDE820404FF000064FF0AF
:1004400000074FF000084FF0000B21F00701AC4609
:10045000ACE8C009ACE8C009ACE8C009ACE8C00928
:100460008D46704710B50446AFF300802046BDE8C6
:100470001040FFF787BE000000487047D8000020FA
:1004800001491820ABBEFEE72600020070470000BD
:1004900070B5044600688168C943C90717D18168EF
:1004A00021F00101816000F09DFB05460AE000BFDC
:1004B00000F098FB401B022804D920688068C043E4
:1004C000C00706D020688068C043C007F0D0002075
:1004D00070BDA06A40F01000A062E06A40F0010028
:1004E000E062012070BD0000F8B5002604460096C9
:1004F00000688168C943C9072DD0816841F00101B6
:100500008160164816490068B0FBF1F000E0401E1B
:1005100000900028FBD100F065FB054616E000BF07
:1005200000F060FB401B022810D920688068C0439F
:10053000C0070BD0A06A40F01000A062E06A40F053
:100540000100E06284F824600120F8BD2068806822
:10055000C043C007E4D10020F8BD00000C0000201B
:1005600040420F00FEE77047F8B50024009490F871
:1005700024202546012A12D0012280F824204A682E
:100580001F23072A0DD20668776B521E02EB8202E8
:1005900093409F430B6893401F43776319E0022009
:1005A000F8BD06680D2A0AD2376BD21F02EB820211
:1005B00093409F430B6893401F43376309E0F76AFA
:1005C0000D3A02EB820293409F430B6893401F4316
:1005D000F7620A68072306680A2A0AD3F7680A3A04
:1005E00002EB420293409F438B6893401F43F760A6
:1005F00008E0376902EB420293409F438B689340C7
:100600001F4337610A68102A01D0112A20D1124BEA
:1006100002689A4217D193681B0219D4936843F475
:10062000000393600968102912D10C490C4A09682B
:10063000B1FBF2F101EB8101490000E0491E00919C
:100640000029FBD104E0816A41F02001816201248C
:1006500080F824502046F8BD002401400C00002002
:1006600040420F000068C06C704700002DE9F04167
:100670004FF0000704003D467ED0A06A002628B94E
:10068000E66284F82460204600F07EF82046FFF7FA
:10069000FFFEA16AC90600D420B1A06A40F0100094
:1006A000A06269E0A16A21F4885141F00201A162CF
:1006B0006268E169237B0A4347EA43010A43A16870
:1006C0004FF48077B94209D0012907D05FF00001CB
:1006D00094F814C0BCF1010F02D00AE03946F7E7E4
:1006E000F3B1A36A43F02003A362E36A43F001037A
:1006F000E3622368D3F804C02CF4694C4CEA010C83
:10070000C3F804C021688B68DFF870C003EA0C03EB
:1007100013438B60A168B9420BD0012909D00CE0CA
:10072000DFF85CC0A3690CEB43330B4343F4006177
:10073000DFE7218A0D05A5F580152168CB6A23F432
:1007400070032B43CB62216889680E4B194091429C
:1007500008D1E662A16A21F0020141F00101A16223
:10076000BDE8F081A06A20F0020040F01000A06215
:10077000E06A40F00100E0620120F1E7FDF7E1FFEF
:1007800000E0FFFFFE0E1FFF00B585B000210091C5
:1007900001910291039100680E49884218D10E48D8
:1007A000816941F400718161816901F400710491F2
:1007B000816941F0040181618069694600F00400AB
:1007C00004900220009003200190044800F018F9E2
:1007D00005B000BD002401400010024000080140A7
:1007E0002DE9F84300270D460446009700F0FAF97A
:1007F000804620688168C90508D5A06A40F02000BD
:10080000A06284F824700120BDE8F8834168C9051E
:1008100003D4C06A10F4700F2AD0022000F072FADC
:100820003B490968B1FBF0F62068036939490B427E
:100830004FEA61014FEAA1121FD1C3684FEA611C60
:1008400013EA0C0F19D103690B4225D1C06810427D
:1008500022D1142023E0681C0AD02DB100F0C2F987
:10086000A0EB0800A84203D920680068800725D5BE
:10087000206800688007EED52DE003690B4202D1A5
:10088000C168114206D0026923490A4206D1C068F4
:10089000084203D1542002E0292000E0FC20464316
:1008A000009816E0681C11D02DB100F09BF9A0EB68
:1008B0000800A8420AD90098B04207D2A06A40F0C6
:1008C0000400A06284F8247003209DE70098401C77
:1008D0000090B042E6D321686FF012000860A06A71
:1008E00040F40070A06220688068C0F3424007288E
:1008F0000CD1207B50B9A06A20F48070A062A06A5D
:10090000C00403D4A06A40F00100A06200207BE78D
:100910000C000020244992244992240070B504461A
:1009200090F8240001280DD0012084F824002046EE
:10093000FFF7DAFD02004FF0000005D084F8240034
:10094000104670BD022070BDA16A40F20123994398
:1009500041F48071A1621F4D23681F49AB4218D139
:100960000E6816F4702F14D0A66A46F48016A6629C
:100970000E68760505D5A66A26F4005646F480561C
:10098000A662A66AF6040AD5E66A26F00606E662BC
:1009900006E0A66A26F48016A6625E68E9E7E062D1
:1009A00084F824006FF00200186020688368C3F3A5
:1009B0004243072B05D1A84208D1096811F4702FD2
:1009C00004D0816841F480118160B9E7816841F405
:1009D000A001F9E7002801400424014070B5044655
:1009E00000F000F90546601C02D004480078044479
:1009F00000F0F8F8401BA042FAD370BD00000020C0
:100A00002DE9F84FDFF89C91002409F1040A0AF15E
:100A1000040B23460F270BF1040EBBE00125A54074
:100A20002A40AA4276D1DFF880C14E68A6EB0C08B6
:100A300066452BD00DDC032E34D005DC36B3012EF9
:100A400019D0022E2FD11BE0112E16D0122E2AD132
:100A500019E0B8F5881F19D006DCB8F5803F15D02D
:100A6000B8F5801F1FD111E0B8F5001F0ED0B8F502
:100A7000041F18D10AE0CB6815E0CB681B1D12E0FB
:100A8000CB6808330FE0CB680C330CE08B682BB1DC
:100A9000012B4FF0080303D0456104E0042302E07A
:100AA000056100E00023FF2A01D8064601E000F1BD
:100AB00004064FEA840501D9A5F12005D6F8008087
:100AC00007FA05FC28EA0C0803FA05F548EA0508C8
:100AD000C6F800804D68ED005BD5344DAE6946F038
:100AE0000106AE61AD6924F0030605F0010500952D
:100AF0002F4D06EB050CDCF80850A607360F07FA59
:100B000006F825EA0805DFF8AC80404503D14FF030
:100B1000000810E03DE0DFF8A080404502D14FF032
:100B2000010808E0DFF89480404502D14FF0020848
:100B300001E04FF0030808FA06F848EA0508CCF887
:100B400008804D68D9F80060ED034D4601D5164385
:100B500000E096432E604D68DAF80060AD0355461C
:100B600001D5164300E096432E604D68DBF8006027
:100B7000ED025D4601D5164300E096432E604D68B8
:100B8000DEF80060AD02754601D5164300E09643DD
:100B90002E60641C0A6832FA04F57FF43FAFBDE8AA
:100BA000F88F000000040140000011100010024006
:100BB0000000014000080140000C0140001001400D
:100BC0008068084000D001207047C26821EA020313
:100BD0000A4043EA0241016170470AB1016170476E
:100BE0000904FBE70148806870470000000000200E
:100BF000024881680278114481607047000000203B
:100C0000074810B5016841F010010160032000F0B1
:100C100067F80F2000F006F800F024F8002010BD5F
:100C20000020024070B50D4D04464FF47A712878CB
:100C3000B1FBF0F00A490968B1FBF0F000F0B8FB35
:100C400048B9102C07D200222146501E00F028F887
:100C500000206C6070BD012070BD0000000000200D
:100C60000C0000200C4808B5816941F00101816148
:100C7000816901F001010091C16941F08051C161B8
:100C8000C06900F0805000900448416821F0E061A4
:100C900041F08061416008BD001002400000014049
:100CA000F0B40E4B1B680C46C3F30223C3F10705D7
:100CB000042D00D90425191D072901D2002300E0C5
:100CC000DB1E012606FA05F1491E214099409E408F
:100CD000761E16403143F0BC01F07BB90CED00E00C
:100CE000064900F0070208684FF6FF03184040EA83
:100CF0000220034A10430860704700000CED00E03A
:100D00000000FA0510B529A401461DCC86B08DE877
:100D10001D002AA02A4C006804900020012923D03D
:100D200002293AD010291DD161682268D20119D553
:100D3000C1F38342C9031DF8020009D5616804AA02
:100D4000C1F34041515C1F4AB2FBF1F1484301E05D
:100D50001D4948436168490204D440005FF0030123
:100D6000B0FBF1F006B010BD226AC2F301210129E7
:100D700003D1920701D5C803F4E7022905D1626ABD
:100D8000920702D549F64040ECE70329EAD12168F1
:100D90008903E7D54FF22440E4E700F033F96168B6
:100DA000C1F38131491C4900DAE700000203040560
:100DB000060708090A0B0C0D0E0F101001020000A7
:100DC0000010024000127A0000093D002DE9F843AE
:100DD00005460078354CC00754D0E0690026C000B5
:100DE00008D4E06940F08050E061E069012600F03D
:100DF000805000902E480168C90512D401688046D1
:100E000041F480710160FFF7EDFE074605E000BF89
:100E1000FFF7E8FEC01B642823D8D8F80000C005FF
:100E2000F6D5206A10F4407021D0A98801F44071F1
:100E300081421CD0206A1F49012220F440700A60C0
:100E400000220A602062C00711D0FFF7CBFE0746E0
:100E500041F2883808E000BFFFF7C4FEC11B4145DE
:100E600002D90320BDE8F883206A8007F4D5206A00
:100E7000696820F44070084320621EB1E06920F0E8
:100E80008050E0612878800705D56068A96820F463
:100E90004040084360602878C00605D56068E9686E
:100EA00020F48000084360600020DBE7001002406F
:100EB00000700040400442422DE9F0470F46050013
:100EC00061D0434E306800F00700B84209D2306864
:100ED00020F0070038433060306800F00700B84267
:100EE00051D128683B4C810712D5400703D5606873
:100EF00040F4E06060602878000703D5606840F443
:100F0000605060606068A96820F0F000084360608D
:100F10002878C00728D06868012810D021680228E6
:100F200010D0890700292EDA616821F003010143FE
:100F30006160FFF757FE804641F288390DE0216875
:100F40008903EFE78901EDE7FFF74CFEA0EB08010D
:100F5000494502D90320BDE8F0876068696800F060
:100F60000C00B0EB810FEFD1306800F00700B84201
:100F70000BD9306820F0070038433060306800F04B
:100F80000700B84201D00120E5E72878400705D5E1
:100F90006068E96820F4E060084360602878000732
:100FA00006D56068296920F4605040EAC10060609D
:100FB00000F038F86168084AC1F30311515CC84079
:100FC0000649086006480068FFF72CFE0020C2E7CB
:100FD00000200240001002401C2800080C000020E5
:100FE000040000200448054900684968044AC1F328
:100FF0000221515CC84070470C00002000100240E4
:101000002C2800080448054900684968044AC1F3CF
:10101000C221515CC84070470C0000200010024003
:101020002C28000812A185B00FC98DE80F0014A06C
:10103000144A006804905168134801F00C03042B13
:1010400010D0082B0ED1C1F38343C9031DF8030050
:101050000AD5516804AAC1F34041515C0A4A504381
:10106000B0FBF1F005B0704708494843FAE70000CB
:1010700002030405060708090A0B0C0D0E0F1010D9
:10108000010200000010024000127A0000093D0039
:101090002DE9F84F040070D02078C04DC00749D02A
:1010A0006868C0F38100012807D06868C0F3810038
:1010B000022809D16868C00306D52868800339D59D
:1010C00060680028E7D035E06068B0F5803F0BD05D
:1010D00010B1B0F5A02F11D0286820F4803028601E
:1010E000286820F4802002E0286840F480302860DE
:1010F000606890B1FFF776FD06460AE0286840F484
:1011000080202860F0E700BFFFF76CFD801B64289B
:1011100073D828688003F7D50CE0FFF763FD064617
:1011200005E000BFFFF75EFD801B6428F0D828684B
:101130008003F7D420789A4E80074FF001094FF0D2
:10114000000839D5686810F00C0F07D06868C0F344
:101150008100022809D16868C00306D42868800786
:1011600014D52069012808D110E02069B0B1C6F873
:101170000090FFF737FD074605E00AE1FFF732FD73
:10118000C01B0228C4D828688007F7D52868616981
:1011900020F0F80040EAC10028600DE0C6F80080A9
:1011A000FFF720FD074604E0FFF71CFDC01B0228E7
:1011B00023D828688007F7D4207800072CD57948F1
:1011C000A169D9B1C0F80090FFF70CFD074604E013
:1011D000FFF708FDC01B02280FD8686A8007F7D503
:1011E00071484FF4FA510068B0FBF1F0009000BF75
:1011F0000098411E0091FAD20EE080E0C0F8008015
:10120000FFF7F0FC074604E0FFF7ECFCC01B0228E8
:1012100075D8686A8007F7D42078400760D5E869F8
:101220000027C00008D4E86940F08050E861E86910
:10123000012700F0805000905C480168C90513D474
:101240000168834641F480710160FFF7CBFC824660
:1012500006E000BFFFF7C6FCA0EB0A0064284ED8EA
:10126000DBF80000C005F5D5E06801280AD008B118
:10127000052813D0286A20F001002862286A20F08F
:10128000040002E0286A40F001002862E06841F2B0
:10129000883B98B1FFF7A6FC82460BE0286A40F035
:1012A00004002862EEE700BFFFF79CFCA0EB0A01F8
:1012B00059455AD8286A8007F6D50CE0FFF792FC0A
:1012C000824605E0FFF78EFCA0EB0A0159454CD899
:1012D000286A8007F6D41FB1E86920F08050E861E1
:1012E000E06988B36968C1F38101022944D002280A
:1012F000C6F8608004D0FFF775FC044638E034E09F
:10130000FFF770FC074604E0FFF76CFCC01B0228E7
:101310002BD828688001F7D4206AB0F5803F05D12A
:101320006868A16820F4003008436860D4E90801C7
:101330000843696821F4741108436860C6F8609036
:10134000FFF750FC044606E025E000BFFFF74AFC2B
:10135000001B022809D828688001F7D51BE000BFD0
:10136000FFF740FC001B022802D90320BDE8F88FDC
:1013700028688001F4D40EE00128F7D06868226A5A
:1013800000F48031914204D1616A00F47010884207
:1013900001D00120EAE70020E8E700000010024049
:1013A00000004242800442420C00002000700040D5
:1013B00010B5401EB0F1807F01D3012010BD4FF069
:1013C000E02460610F21601700F003FE0020A0619F
:1013D00007202061002010BD10B590F83C20012AA4
:1013E00022D0012280F83C20CA688C6822F4407226
:1013F00022434C6822F4806222430C6822F400628B
:1014000022430C6922F4805222434C6922F4005298
:101410002243C969002322F480420A4301684A64D6
:1014200080F83C30002010BD022010BD70B590F84F
:101430003C20012A23D0012480F83C40022280F87D
:101440003D2003685A689D6822F070060A6832439E
:101450005A600C4B02689A4205D0B2F1804F02D01C
:10146000094B9A4204D1496825F0800319439160E1
:1014700080F83D40002180F83C10084670BD0220F5
:1014800070BD0000002C01400004004090F83D10A9
:10149000012901D001207047022180F83D10006829
:1014A0000949884205D0B0F1804F02D007498842EF
:1014B00004D1816801F00701062903D0016841F0D9
:1014C0000101016000207047002C01400004004031
:1014D00000B585B00021009101910291039100684F
:1014E0000B49884212D10B48816941F004018161A6
:1014F0008069694600F0040004904FF48070009009
:101500000220019003900448FFF77AFA05B000BD6D
:10151000002C0140001002400008014070B5044654
:1015200090F83C000D4601280AD0012084F83C00C8
:1015300042B1042A18D0082A2AD00C2A4DD139E009
:10154000022070BD206800F013FC2068816941F022
:10155000080181612068816921F0040181612068AE
:1015600081692A69114311E0206800F029FC206894
:10157000816941F4006181612068816921F48061A1
:101580008161206881692A6941EA0221816124E040
:10159000206800F041FC2068C16941F00801C16188
:1015A0002068C16921F00401C1612068C1692A690C
:1015B000114311E0206800F05BFC2068C16941F430
:1015C0000061C1612068C16921F48061C161206846
:1015D000C1692A6941EA0221C161002084F83C0006
:1015E00070BD10B5040003D094F83D0010B107E0C1
:1015F000012010BD002084F83C00204600F01EF8B9
:10160000022084F83D00211D206800F083FB0120AA
:1016100084F8460084F83E0084F83F0084F84000D7
:1016200084F8410084F8420084F8430084F84400C0
:1016300084F8450084F83D00002010BD08B500681E
:101640000649884208D10648816941F400618161F8
:10165000806900F40060009008BD0000002C01408B
:101660000010024070B5040004D094F83D0000253D
:1016700010B106E0012070BD84F83C50204600F017
:1016800023F8242084F83D002068C16821F400512B
:10169000C160204600F00EFC2068016921F49041F1
:1016A00001612068416921F02A0141612068C16817
:1016B00041F40051C1602564202084F83D0084F885
:1016C0003E00002070BD000030B585B000240094BD
:1016D00001940294039400681449884224D1144868
:1016E000816941F480418161816901F48041049103
:1016F000816941F00401816180690E4D00F00400B0
:1017000004904FF400700090022001900320039099
:1017100069462846FFF774F92815CDE900046946A3
:1017200028460294FFF76CF905B030BD003801403F
:1017300000100240000801402DE9F843044690F8EB
:101740003D001F4616460D4620284CD1C5B1BEB1FE
:1017500094F83C00012846D0012084F83C004FF06A
:101760000008C4F84080212084F83D00FFF73AFAD1
:10177000A6848146E684A068B0F5805F03D004E0CB
:101780000120BDE8F883206928B12E465FF00005EE
:1017900084F83C800EE00026FAE78021204600F025
:1017A000E5FBA0B9AEB116F8010B21684860E08CEA
:1017B000401EE084E08C4B464FF00002009700286A
:1017C000EBD14FF04001204600F0D0FB30B10320B8
:1017D000D7E735F8020BC0F30800E6E7202084F8CD
:1017E0003D000020CDE70220CBE7FEE710B5194C05
:1017F000174860601848A0600F20FFF7EFF8616895
:10180000032088470520FFF7E9F86168032088472F
:101810000120FFF7E3F8616832208847204681788D
:101820004078C90041EA8000C0B2616840F0200001
:101830008847616808208847616801208847616897
:10184000062088476168BDE810400C20084700006A
:10185000C91B000810000020D91A000810B5194C47
:10186000174860601848A0600F20FFF7B7F861685C
:10187000302088470520FFF7B1F86168302088479D
:101880000120FFF7ABF86168302088472046817857
:101890004078C90041EA8000C0B2616840F0300081
:1018A0008847616808208847616801208847616827
:1018B000062088476168BDE810400C2008470000FA
:1018C0004D1C000810000020711B000810B5044CCE
:1018D0000120616888476168BDE810400220084720
:1018E00010000020094A526841B1012908D002299C
:1018F00008D0032908D1D430C0B210478030FBE7AC
:10190000C030F9E79430F7E770470000100000207E
:1019100005480078022803D0032803D1FFF79EBFB3
:10192000FFF764BF704700001000002070B5044648
:10193000044D02E0A9688847641C20780028F9D18A
:1019400070BD0000100000203EB500241048009437
:10195000019402940D4984600160012505730475AA
:1019600005614FF460214460C161FEF77FFE08B15C
:1019700072B6FEE70095CDE9015469460448FEF7CA
:10198000F3FD002801D072B6FEE73EBD0024014001
:101990001C0000202DE9F04385B00024214800946C
:1019A000019402940394816941F004018161816989
:1019B00001F004010491816941F0080181618069AD
:1019C000DFF8648000F00800049000223C214046CB
:1019D000FFF703F9DFF8549048F6FF670022394615
:1019E0004846FFF7FAF83C2001250226CDE900051C
:1019F000CDE9024669464046FFF702F80097039694
:101A0000CDE9015469464846FEF7FAFF4FF4E0403D
:101A1000CDE90004694648460294FEF7F1FF05B09F
:101A2000BDE8F0830010024000080140000C0140B6
:101A300010B592B000240F941C2108A81094FEF752
:101A40004BFC20216846FEF747FC20481E49C0E9B0
:101A500000144FF6FF71C0E90241046144618461E2
:101A6000FFF7BFFD08B172B6FEE70F940FA9174844
:101A70001094FFF7DBFC08B172B6FEE76020CDE9F9
:101A800008040A940B940C940D94002208A90F48A2
:101A90000E94FFF743FD08B172B6FEE700944FF4D1
:101AA0000050CDE90440029401940394694607482C
:101AB0000794FFF791FC08B172B6FEE70348FFF701
:101AC00007FD12B010BD0000002C01404C000020AA
:101AD000FEE7FEE7704700002DE9F04104460120D3
:101AE000FEF77CFF0122DFF88480D50229464046BC
:101AF000FFF773F86E10002231464046FFF76DF88D
:101B000000220F214046FFF768F8210901224046D4
:101B1000FFF763F80122570239464046FFF75DF8A8
:101B2000002239464046FFF758F801222946404630
:101B3000FFF753F8002231464046FFF74EF80022E7
:101B40000F214046FFF749F804F00F0101224046FB
:101B5000FFF743F8012239464046FFF73EF8394681
:101B60004046BDE8F0410022FFF737B8000C0140C5
:101B700070B504460120FEF731FF114D0122D1025C
:101B80002846FFF72AF8002229152846FFF725F8EE
:101B90000022FF212846FFF720F80122214628468F
:101BA000FFF71BF80122540221462846FFF715F8DB
:101BB00021462846BDE870400022FFF70EB800001D
:101BC000000C0140704700002DE9F041044601205F
:101BD000FEF704FF1C4E4FF44065002229463046B4
:101BE000FEF7FBFF00220F213046FEF7F6FF21092A
:101BF00001223046FEF7F1FF0122570239463046F6
:101C0000FEF7EBFF002239463046FEF7E6FF0022E2
:101C100029463046FEF7E1FF00220F213046FEF74D
:101C2000DCFF04F00F0101223046FEF7D6FF01224F
:101C300039463046FEF7D1FF39463046BDE8F0411F
:101C40000022FEF7CABF0000000C014070B5044638
:101C50000120FEF7C3FE0F4D00224FF440612846DD
:101C6000FEF7BBFF0022FF212846FEF7B6FF012248
:101C700021462846FEF7B1FF01225402214628469C
:101C8000FEF7ABFF21462846BDE870400022FEF774
:101C9000A4BF0000000C0140FEF7AABF30B593B00E
:101CA00028216846FEF718FB14210AA8FEF714FB4A
:101CB000002401200F940225049000951020059027
:101CC000109411941294CDE9075468460994FFF7D3
:101CD000DFF908B172B6FEE70F20CDE90A054FF42F
:101CE0008060CDE90C4000210AA80E94FFF7E4F8CB
:101CF00008B172B6FEE74FF4004011900F950FA89F
:101D0000FFF764F8002801D072B6FEE713B030BDCB
:101D10007047000070B50268134B144C4FF08046BA
:101D2000984203D0B04201D0A04203D122F0700506
:101D30004A682A43984203D0B04201D0A04203D15E
:101D400022F44074CA6822434C6922F08002224384
:101D500002608A68C2620A688262984201D1096997
:101D600001630121416170BD002C0140000400406D
:101D700030B5026A22F001020262026A4368846995
:101D800024F073050C682C4322F002058A682A436C
:101D90000A4DA8420BD122F00805CA6823F440730B
:101DA0002A434D6922F004021D438B692B43436093
:101DB000846149684163026230BD0000002C01402B
:101DC00030B5026A22F010020262026A4368846936
:101DD0000D6824F4E64444EA05248D6822F02002CC
:101DE00042EA05120B4DA8420ED1CD6822F08002C6
:101DF00042EA05124D6923F4406343EA85038D6985
:101E000022F0400243EA85034360846149688163AC
:101E1000026230BD002C014030B5026A22F48072AB
:101E20000262036A4268C46923F4007324F07305F4
:101E30000C682C438D6843EA05230C4DA8420ED153
:101E4000CD6823F4006343EA05234D6922F4405230
:101E500042EA05128D6923F4806342EA051242606A
:101E6000C4614968C163036230BD0000002C0140B9
:101E700030B5026A22F480520262046A4268C36981
:101E80000D6823F4E64343EA05238D6824F40054E7
:101E900044EA0534064DA84204D14D6922F480423B
:101EA00042EA85124260C36149680164046230BD40
:101EB000002C014070B5044600680169E26821F415
:101EC0004051114301612169A068084361690843D9
:101ED0002168CA6841F20C639A430243CA602068D1
:101EE0004169A26921F44071114341611E49206892
:101EF000884202D1FFF786F801E0FFF773F800EBA4
:101F0000C00101EB0012606864218000B2FBF0F3B5
:101F1000B3FBF1F36FF018067343B2FBF0F5B2FBBD
:101F2000F0F605EB8305322303EB0515B5FBF1F560
:101F3000B6FBF1F605F0F00505EB0615B2FBF0F681
:101F4000B2FBF0F0B0FBF1F06FF01802504306EB7B
:101F5000800003EB0010B0FBF1F0216800F00F00EF
:101F60002844886070BD0000003801402DE9F04130
:101F7000984617460E460446069D1DE0681C1BD079
:101F80002DB1FEF72FFEA0EB0800A84214D920685F
:101F9000C16821F4D071C1602068416921F001015C
:101FA0004161202084F83D0084F83E00002084F840
:101FB0003C000320BDE8F0812068006836EA00009C
:101FC00004D00020B842D9D00020F3E70120F9E77F
:101FD000FEE70907090E002804DB00F1E02080F885
:101FE0000014704700F00F0000F1E02080F8141D8D
:101FF000704700002DE9F047544EFF2401220421D0
:102000003046FEF7EAFD002208213046FEF7E5FDE6
:10201000002210213046FEF7E0FD0022202130464C
:10202000FEF7DBFD4A4DB71439462846FEF7C8FDDA
:102030004FF400584FF4804908B101240CE04146A8
:102040002846FEF7BDFD08B1022405E049462846B2
:10205000FEF7B6FD00B10324002204213046FEF74E
:10206000BCFD012208213046FEF7B7FD00221021F9
:102070003046FEF7B2FD002220213046FEF7ADFDCE
:1020800039462846FEF79CFD08B104240CE0414681
:102090002846FEF795FD08B1052405E04946284687
:1020A000FEF78EFD00B10624002204213046FEF723
:1020B00094FD002208213046FEF78FFD01221021F9
:1020C0003046FEF78AFD002220213046FEF785FDCE
:1020D00039462846FEF774FD08B107240CE0414656
:1020E0002846FEF76DFD08B1082405E0494628465C
:1020F000FEF766FD00B10924002204213046FEF7F8
:102100006CFD002208213046FEF767FD00221021F9
:102110003046FEF762FD012220213046FEF75DFDCC
:1021200039462846FEF74CFD58B941462846FEF789
:1021300047FD08B1002405E049462846FEF740FD6A
:1021400000B1FF242046BDE8F087000000080140F0
:10215000000C014088B0FEF753FDFFF79FFDFFF72D
:1021600019FCFFF7F1FBFFF763FC6C486A49002498
:1021700001604FF41651C0E901140C21C460C0E99C
:1021800004418461C461FFF76DFA08B172B6FEE7DD
:10219000634803214470017001218170FFF7B8FB8F
:1021A0005E480594039404940026009401944838F2
:1021B0000294FFF76BF9594C483C2068406A6F461F
:1021C00085B24FF4967800BFFFF714FFFF280CD0BC
:1021D0003030B85500210846761CFFF783FB68466F
:1021E000FFF7A4FB4046FEF7F9FB0A2EECDBFFF7F6
:1021F0006DFBDFF83091DFF830A1DFF830B14FF040
:10220000FF374FF066384CF2503644487838FEF7C6
:1022100085FB424839467838FEF7E2FA3F4878387D
:10222000FEF720FA80B200F0BCF842464B4600F0C0
:10223000CBF80022534600F0C7F800F081F8594669
:1022400000F0C0F900F080FA8DF818006423012234
:1022500006A93248FFF770FA9DF8182034A103A8A8
:10226000FDF7B6FF00210846FFF73CFB03A8FFF788
:102270005DFB9DF81800A0F11F01092911D220680B
:10228000406A401BB04207D34FF400412948FEF793
:102290009CFC2068406A85B22068406A2649401B41
:1022A00029E0293813282068406AA0EB050011D2E4
:1022B00047F23051884207D34FF400411D48FEF7E2
:1022C00084FC2068406A85B22068406A401BB042A6
:1022D0009BD312E042F21071884207D34FF40041C1
:1022E0001448FEF772FC2068406A85B22068406A94
:1022F00044F62061401B884287D301210020FFF76C
:10230000F1FA0EA0FFF712FB01210420FFF7EAFA11
:102310006846FFF70BFB78E7003801409400002087
:102320001000002066660A400000594000F07F451A
:1023300025640000000C0140905F01006D73670090
:1023400021F00042A2F16052B2F5801F01F000437B
:1023500028BFD2F17F6C0BD95FEA001C43EAC202AE
:1023600042EB507018BF704728BF20F00100704743
:10237000B2F5801FBCBF184670474FEA410C1CF5F0
:10238000001F02D2084600F044BA70B500F0C6F84B
:1023900000000089FFF7F6BF4FF00040A0F5800075
:1023A0007047B0FA80F310FA03F10AD0C3F11D03AD
:1023B00003F580634FEA41504FEA035202EBD1210B
:1023C00070474FF000007047DFF848C170B51CEA55
:1023D000111E1EBF1CEA13159EEA0C0F95EA0C0F86
:1023E00000F06F8081EA030423EA4C134EEAD47EA6
:1023F00021EA4C1141F4801143F48013AE44A1FB57
:10240000024CA0FB0365AEF17F7E361955EB0C053F
:10241000A1FB034C4CF10003A0FB021C16EB0C06C5
:10242000654153F10003094218BF46F0010613F459
:10243000007F0BD14FEA03314FEA0530340341EA04
:10244000155140EA16506FF003020AE04FEAC3212B
:102450004FEAC520F40241EA555140EA56506FF068
:10246000020202EB2E4201EB025585EACE710AD040
:102470005FEA440C18BF24F0004450F1000041F121
:10248000000120EAD47040F2FE7C624500D270BDAB
:10249000A84214BF4FF080444FF04044002E08BFC4
:1024A0000024BEF1806FA8BFA1F1C041BDE870401B
:1024B00080F282804FF0000001F1C04101F0004144
:1024C00070479EEA0C0F0CEA131518BF95EA0C0F23
:1024D00006D04FF0000081EA030E0EF0004170BDFF
:1024E00000F01CF88900013E00F007B800F009B8C0
:1024F0004FEA430C5FEA5C5C08D081EA030100F01C
:102500005BB84FEA410C5FEA5C5CF6D14FF000002B
:10251000014970470000FF070000F87F0EF1020E2E
:102520002EF0030E5EF8046B364205D4012A43EB0D
:10253000030515F5001F12D8012841EB010C1CF50D
:10254000001F0CD80ED14FEAD17C15F5001F0CEB03
:102550004C0C0CF1020C08BF4CEBD37C04E04FF0A8
:10256000080C01E04FEAD37C0CEB4C0526FA05F68B
:1025700006F00706B6F1040C06D20EEB860CBDE899
:1025800070404CF0010C6047DFE80CF0090B0202D0
:102590004FF000414FF00000A1F5002170BD194639
:1025A0001046012851EB010418BFD4F5001484BF74
:1025B000002001F0004170BD0808A0F500114FEAAD
:1025C000310170474FF47F0C1CEAD0121EBF1CEA89
:1025D000D11392EA0C0F93EA0C0F00F0858090EA79
:1025E000010F48BF42F4807240F4000C41F4000037
:1025F0002CF07F4120F07F4000B58142A2EB030226
:102600000FF2081CACEB504EC0F100009EF800E049
:102610004FEA4E0E00FB0EFC38BF49004FEA2C1C5F
:1026200002F5FA020CFB0EF34FEACE1E4FEA112C14
:102630004FEAC1210EEB635E42EB22420EFB0CFC23
:102640004FEA1C5300FB03114FEA112C4FEA0131F2
:102650000EFB0CFC4FEADC4C00FB0C11C14228BF06
:1026600009184CEB03335DF804EB10EB410143EB2D
:10267000C250B2F57C0F38BF704729D512F0F00F69
:102680001CBF00F1C04000F0004070470081828311
:102690008485868788898B8C8D8E8F919293959671
:1026A00097999A9C9D9FA0A2A3A5A7A8AAACAEB0FB
:1026B000B2B3B5B7B9BCBEC0C2C5C7C9CCCED1D400
:1026C000D7D9DCDFE2E6E9ECF0F3F7FAFE00000030
:1026D0004FEA400C0CF1807CBCF17E4F28BF704764
:1026E000B0F1C04000F095B890EA010F0CEAD113A8
:1026F00048BF42F48072624538BF634507D213F485
:102700007F0F16D080EA010000F00040704710B53E
:1027100000F039F8097EFC3E00F005B880EA0100BF
:1027200000F00040704780EA010000F0004000F037
:1027300070B812F47F0F04BF0248704780EA0100AE
:1027400000F067B80000C07FC10DD1F19E0206DB2A
:102750004FEA002343F0004323FA02F0704700429F
:1027600007D54FEA4001B1F1FE4F02D24FF0000011
:10277000704710B500F007F8499224800020704798
:102780006FEA200070470EF1020E2EF0030E5EF885
:10279000044B244204D44FEA4102B2F17F4F11D8D6
:1027A0004FEA4003B3F17F4F0CD80ED14FEAD07CF3
:1027B000B2F17F4F0CEB4C0C0CF1020C08BF4CEB50
:1027C000D17C04E04FF0080C01E04FEAD17C0CEB27
:1027D0004C0324FA03F404F00704B4F1040C06D209
:1027E0000EEB840CBDE810404CF0010C6047DFE8B4
:1027F0000CF0070802024FF00040A0F5800010BD69
:102800000846420018BFD2F1807288BF00F0004035
:1028100010BDFF2141EAD050C00570470000000004
:102820000000000001020304060708090000000080
:102830000102030454280008000000201C000000CE
:1028400028010008702800081C0000201C07000058
:10285000440100080100000010000000000000001A
:102860000024F40000000000000000000000000050
:04000005080000ED02
:00000001FF
